{
  "contractName": "FairGameCrowdSale",
  "abi": [
    {
      "constant": true,
      "inputs": [],
      "name": "amountGoal",
      "outputs": [
        {
          "name": "",
          "type": "uint256"
        }
      ],
      "payable": false,
      "stateMutability": "view",
      "type": "function"
    },
    {
      "constant": true,
      "inputs": [],
      "name": "getTokenAddress",
      "outputs": [
        {
          "name": "",
          "type": "address"
        }
      ],
      "payable": false,
      "stateMutability": "view",
      "type": "function"
    },
    {
      "constant": true,
      "inputs": [
        {
          "name": "_purchaser",
          "type": "address"
        },
        {
          "name": "stageIdx",
          "type": "uint256"
        }
      ],
      "name": "getLockedToken",
      "outputs": [
        {
          "name": "",
          "type": "uint256"
        }
      ],
      "payable": false,
      "stateMutability": "view",
      "type": "function"
    },
    {
      "constant": true,
      "inputs": [
        {
          "name": "",
          "type": "uint256"
        }
      ],
      "name": "icoStages",
      "outputs": [
        {
          "name": "duration",
          "type": "uint256"
        },
        {
          "name": "rate",
          "type": "uint256"
        }
      ],
      "payable": false,
      "stateMutability": "view",
      "type": "function"
    },
    {
      "constant": true,
      "inputs": [],
      "name": "rate",
      "outputs": [
        {
          "name": "",
          "type": "uint256"
        }
      ],
      "payable": false,
      "stateMutability": "view",
      "type": "function"
    },
    {
      "constant": true,
      "inputs": [],
      "name": "endTime",
      "outputs": [
        {
          "name": "",
          "type": "uint256"
        }
      ],
      "payable": false,
      "stateMutability": "view",
      "type": "function"
    },
    {
      "constant": true,
      "inputs": [],
      "name": "beneficiary",
      "outputs": [
        {
          "name": "",
          "type": "address"
        }
      ],
      "payable": false,
      "stateMutability": "view",
      "type": "function"
    },
    {
      "constant": true,
      "inputs": [
        {
          "name": "",
          "type": "address"
        }
      ],
      "name": "purchasers",
      "outputs": [
        {
          "name": "amountEtherSpent",
          "type": "uint256"
        },
        {
          "name": "amountTokenTaken",
          "type": "uint256"
        }
      ],
      "payable": false,
      "stateMutability": "view",
      "type": "function"
    },
    {
      "constant": true,
      "inputs": [],
      "name": "tokenHolder",
      "outputs": [
        {
          "name": "",
          "type": "address"
        }
      ],
      "payable": false,
      "stateMutability": "view",
      "type": "function"
    },
    {
      "constant": true,
      "inputs": [],
      "name": "isReachedGoal",
      "outputs": [
        {
          "name": "",
          "type": "bool"
        }
      ],
      "payable": false,
      "stateMutability": "view",
      "type": "function"
    },
    {
      "constant": true,
      "inputs": [],
      "name": "isStarted",
      "outputs": [
        {
          "name": "",
          "type": "bool"
        }
      ],
      "payable": false,
      "stateMutability": "view",
      "type": "function"
    },
    {
      "constant": true,
      "inputs": [],
      "name": "startTime",
      "outputs": [
        {
          "name": "",
          "type": "uint256"
        }
      ],
      "payable": false,
      "stateMutability": "view",
      "type": "function"
    },
    {
      "constant": true,
      "inputs": [],
      "name": "amountRaised",
      "outputs": [
        {
          "name": "",
          "type": "uint256"
        }
      ],
      "payable": false,
      "stateMutability": "view",
      "type": "function"
    },
    {
      "constant": true,
      "inputs": [
        {
          "name": "stageIndex",
          "type": "uint256"
        }
      ],
      "name": "canTokenUnlocked",
      "outputs": [
        {
          "name": "",
          "type": "bool"
        }
      ],
      "payable": false,
      "stateMutability": "view",
      "type": "function"
    },
    {
      "constant": true,
      "inputs": [
        {
          "name": "",
          "type": "uint256"
        }
      ],
      "name": "purchaserList",
      "outputs": [
        {
          "name": "",
          "type": "address"
        }
      ],
      "payable": false,
      "stateMutability": "view",
      "type": "function"
    },
    {
      "constant": true,
      "inputs": [
        {
          "name": "",
          "type": "uint256"
        }
      ],
      "name": "lockStages",
      "outputs": [
        {
          "name": "duration",
          "type": "uint256"
        },
        {
          "name": "rate",
          "type": "uint256"
        }
      ],
      "payable": false,
      "stateMutability": "view",
      "type": "function"
    },
    {
      "constant": true,
      "inputs": [],
      "name": "owner",
      "outputs": [
        {
          "name": "",
          "type": "address"
        }
      ],
      "payable": false,
      "stateMutability": "view",
      "type": "function"
    },
    {
      "constant": false,
      "inputs": [
        {
          "name": "fundingGoalInEther",
          "type": "uint256"
        }
      ],
      "name": "start",
      "outputs": [],
      "payable": false,
      "stateMutability": "nonpayable",
      "type": "function"
    },
    {
      "constant": true,
      "inputs": [],
      "name": "isEnded",
      "outputs": [
        {
          "name": "",
          "type": "bool"
        }
      ],
      "payable": false,
      "stateMutability": "view",
      "type": "function"
    },
    {
      "constant": false,
      "inputs": [
        {
          "name": "stageIndex",
          "type": "uint256"
        },
        {
          "name": "purchaserStartIdx",
          "type": "uint256"
        },
        {
          "name": "purchaserEndIdx",
          "type": "uint256"
        }
      ],
      "name": "unlockBonusTokens",
      "outputs": [],
      "payable": false,
      "stateMutability": "nonpayable",
      "type": "function"
    },
    {
      "constant": true,
      "inputs": [],
      "name": "getRemainingTimeInSecond",
      "outputs": [
        {
          "name": "",
          "type": "uint256"
        }
      ],
      "payable": false,
      "stateMutability": "view",
      "type": "function"
    },
    {
      "constant": true,
      "inputs": [],
      "name": "amountTokenIssued",
      "outputs": [
        {
          "name": "",
          "type": "uint256"
        }
      ],
      "payable": false,
      "stateMutability": "view",
      "type": "function"
    },
    {
      "constant": true,
      "inputs": [],
      "name": "getCurrentStage",
      "outputs": [
        {
          "name": "",
          "type": "int256"
        }
      ],
      "payable": false,
      "stateMutability": "view",
      "type": "function"
    },
    {
      "constant": false,
      "inputs": [
        {
          "name": "newOwner",
          "type": "address"
        }
      ],
      "name": "transferOwnership",
      "outputs": [],
      "payable": false,
      "stateMutability": "nonpayable",
      "type": "function"
    },
    {
      "constant": true,
      "inputs": [],
      "name": "token",
      "outputs": [
        {
          "name": "",
          "type": "address"
        }
      ],
      "payable": false,
      "stateMutability": "view",
      "type": "function"
    },
    {
      "constant": false,
      "inputs": [],
      "name": "safeWithdrawal",
      "outputs": [],
      "payable": false,
      "stateMutability": "nonpayable",
      "type": "function"
    },
    {
      "inputs": [
        {
          "name": "beneficiaryAddr",
          "type": "address"
        },
        {
          "name": "tokenHolderAddr",
          "type": "address"
        },
        {
          "name": "tokenAddr",
          "type": "address"
        }
      ],
      "payable": false,
      "stateMutability": "nonpayable",
      "type": "constructor"
    },
    {
      "payable": true,
      "stateMutability": "payable",
      "type": "fallback"
    },
    {
      "anonymous": false,
      "inputs": [
        {
          "indexed": false,
          "name": "purchaser",
          "type": "address"
        },
        {
          "indexed": false,
          "name": "value",
          "type": "uint256"
        },
        {
          "indexed": false,
          "name": "buyTokens",
          "type": "uint256"
        },
        {
          "indexed": false,
          "name": "bonusTokens",
          "type": "uint256"
        }
      ],
      "name": "TokenPurchase",
      "type": "event"
    },
    {
      "anonymous": false,
      "inputs": [
        {
          "indexed": false,
          "name": "totalAmountRaised",
          "type": "uint256"
        },
        {
          "indexed": false,
          "name": "totalTokenIssued",
          "type": "uint256"
        }
      ],
      "name": "GoalReached",
      "type": "event"
    },
    {
      "anonymous": false,
      "inputs": [
        {
          "indexed": false,
          "name": "beneficiaryAddress",
          "type": "address"
        },
        {
          "indexed": false,
          "name": "value",
          "type": "uint256"
        }
      ],
      "name": "FundingWithdrawn",
      "type": "event"
    },
    {
      "anonymous": false,
      "inputs": [
        {
          "indexed": false,
          "name": "purchaser",
          "type": "address"
        },
        {
          "indexed": false,
          "name": "amountUnlockedTokens",
          "type": "uint256"
        }
      ],
      "name": "UnlockToken",
      "type": "event"
    },
    {
      "anonymous": false,
      "inputs": [
        {
          "indexed": false,
          "name": "oldOwner",
          "type": "address"
        },
        {
          "indexed": false,
          "name": "newOwner",
          "type": "address"
        }
      ],
      "name": "OwnerChanged",
      "type": "event"
    }
  ],
  "bytecode": "0x606060405234156200001057600080fd5b6040516060806200146883398101604052808051919060200180519190602001805160008054600160a060020a03191633600160a060020a03908116919091179091559092508491508390839061271090841615156200006f57600080fd5b600160a060020a03831615156200008557600080fd5b600160a060020a03821615156200009b57600080fd5b60008111620000a957600080fd5b60028054600160a060020a03808716600160a060020a03199283161790925560038054868416908316179055600180549285169290911691909117905560048190556200010364010000000062000e3a6200011082021704565b5050505050505062000395565b6200011e600a600062000311565b600a80546001810162000132838262000337565b916000526020600020906002020160006040805190810160405262093a808152601460208201529190508151815560208201518160010155505050600a805480600101828162000183919062000337565b916000526020600020906002020160006040805190810160405262093a808152600a60208201529190508151815560208201518160010155505050600a8054806001018281620001d4919062000337565b916000526020600020906002020160006040805190810160405262093a80815260006020820152919050815181556020820151600190910155506200021e9050600b600062000311565b600b80546001810162000232838262000337565b916000526020600020906002020160006040805190810160405262278d008152602160208201529190508151815560208201518160010155505050600b805480600101828162000283919062000337565b916000526020600020906002020160006040805190810160405262278d008152602160208201529190508151815560208201518160010155505050600b8054806001018281620002d4919062000337565b916000526020600020906002020160006040805190810160405262278d008152602260208201529190508151815560208201518160010155505050565b50805460008255600202906000526020600020908101906200033491906200036b565b50565b81548183558181151162000366576002028160020283600052602060002091820191016200036691906200036b565b505050565b6200039291905b808211156200038e576000808255600182015560020162000372565b5090565b90565b6110c380620003a56000396000f30060606040526004361061013a5763ffffffff60e060020a6000350416630785001c811461038657806310fe9ae8146103ab57806312a77dbd146103da578063228e892e146103fc5780632c4e722e1461042a5780633197cbb61461043d57806338af3eed1461045057806339ad021214610463578063420a83e71461048257806352a2695c14610495578063544736e6146104bc57806378e97925146104cf5780637b3e5e7b146104e25780637dc8c73e146104f55780638815ee861461050b5780638c13aabe146105215780638da5cb5b1461053757806395805dad1461054a578063a4fd6f5614610562578063b15089b114610575578063c44f786414610591578063e1e073b6146105a4578063eedbe31d146105b7578063f2fde38b146105ca578063fc0c546a146105e9578063fd6b7ef8146105fc575b60008060008060008061014b61060f565b151561015657600080fd5b61015e61062b565b1561016857600080fd5b6000341161017557600080fd5b34955061018186610640565b600160a060020a0333166000908152600c60205260409020805489018155600181018054840190556002810154929750909550935015156101f457600b546040518059106101cc5750595b9080825280602002602001820160405250836002019080516101f2929160200190610dac565b505b600091505b600b5482101561026357600b80548390811061021157fe5b9060005260206000209060020201905060648482600101540281151561023357fe5b04836002018381548110151561024557fe5b600091825260209091200180549091019055600191909101906101f9565b60068054870190556007805486019055600154600354600160a060020a03918216916323b872dd9116338860006040516020015260405160e060020a63ffffffff8616028152600160a060020a0393841660048201529190921660248201526044810191909152606401602060405180830381600087803b15156102e657600080fd5b6102c65a03f115156102f757600080fd5b50505060405180519050507f347f5f0051b895093800553e6e78ef332849e2552639a4f5ffe66535788ae078338787876040518085600160a060020a0316600160a060020a0316815260200184815260200183815260200182815260200194505050505060405180910390a161036c336106a3565b61037461074b565b1561037e57426009555b505050505050005b341561039157600080fd5b610399610756565b60405190815260200160405180910390f35b34156103b657600080fd5b6103be61075c565b604051600160a060020a03909116815260200160405180910390f35b34156103e557600080fd5b610399600160a060020a036004351660243561076b565b341561040757600080fd5b6104126004356107d1565b60405191825260208201526040908101905180910390f35b341561043557600080fd5b6103996107fd565b341561044857600080fd5b610399610803565b341561045b57600080fd5b6103be610809565b341561046e57600080fd5b610412600160a060020a0360043516610818565b341561048d57600080fd5b6103be610831565b34156104a057600080fd5b6104a861074b565b604051901515815260200160405180910390f35b34156104c757600080fd5b6104a861060f565b34156104da57600080fd5b610399610840565b34156104ed57600080fd5b610399610846565b341561050057600080fd5b6104a860043561084c565b341561051657600080fd5b6103be6004356108b9565b341561052c57600080fd5b6104126004356108e1565b341561054257600080fd5b6103be6108ef565b341561055557600080fd5b6105606004356108fe565b005b341561056d57600080fd5b6104a861062b565b341561058057600080fd5b610560600435602435604435610994565b341561059c57600080fd5b610399610b99565b34156105af57600080fd5b610399610bb8565b34156105c257600080fd5b610399610bbe565b34156105d557600080fd5b610560600160a060020a0360043516610c19565b34156105f457600080fd5b6103be610cdd565b341561060757600080fd5b610560610cec565b6000600854600010801561062557504260085411155b90505b90565b6000600954421180610625575061062561074b565b6004548102600080610650610bbe565b9050600081121580156106645750600a5481105b151561066c57fe5b6064600a8281548110151561067d57fe5b906000526020600020906002020160010154840281151561069a57fe5b04915050915091565b6000600160a060020a03821615156106ba57600080fd5b5060005b600d5481101561070257600d8054829081106106d657fe5b600091825260209091200154600160a060020a03838116911614156106fa57610747565b6001016106be565b600d8054600181016107148382610df7565b506000918252602090912001805473ffffffffffffffffffffffffffffffffffffffff1916600160a060020a0384161790555b5050565b600554600654101590565b60055481565b600154600160a060020a031690565b600160a060020a0382166000908152600c60205260408120600201548210610795575060006107cb565b600160a060020a0383166000908152600c602052604090206002018054839081106107bc57fe5b90600052602060002090015490505b92915050565b600a8054829081106107df57fe5b60009182526020909120600290910201805460019091015490915082565b60045481565b60095481565b600254600160a060020a031681565b600c602052600090815260409020805460019091015482565b600354600160a060020a031681565b60085481565b60065481565b6000806000836000111580156108635750600b5484105b156108ad57505060095460005b8381116108a357600b80548290811061088557fe5b60009182526020909120600290910201549190910190600101610870565b81421192506108b2565b600092505b5050919050565b600d8054829081106108c757fe5b600091825260209091200154600160a060020a0316905081565b600b8054829081106107df57fe5b600054600160a060020a031681565b60008054819033600160a060020a0390811691161461091c57600080fd5b61092461060f565b1561092e57600080fd5b6000831161093b57600080fd5b5050670de0b6b3a76400008102600555426008556000805b600a5481101561098957600a80548290811061096b57fe5b60009182526020909120600290910201549190910190600101610953565b506008540160095550565b6000806000806109a261062b565b15156109ad57600080fd5b60005433600160a060020a039081169116146109c857600080fd5b856000111580156109d857508486105b80156109e65750600d548511155b15156109f157600080fd5b6109fa8761084c565b1515610a0557600080fd5b8593505b84841015610b9057600d805485908110610a1f57fe5b600091825260209091200154600160a060020a031692508215610b8557600160a060020a0383166000908152600c602052604090206002810180549193509088908110610a6857fe5b60009182526020822001549150811115610b855760008260020188815481101515610a8f57fe5b60009182526020822001919091556001838101805484019055600780548401905554600354600160a060020a03918216926323b872dd9290911690869085906040516020015260405160e060020a63ffffffff8616028152600160a060020a0393841660048201529190921660248201526044810191909152606401602060405180830381600087803b1515610b2457600080fd5b6102c65a03f11515610b3557600080fd5b50505060405180519050507f8600c955c7fd364243b214e272928b62aa6d3a0187f6eb1095c796cabe6a90678382604051600160a060020a03909216825260208201526040908101905180910390a15b600190930192610a09565b50505050505050565b600060095460001415610bae57506000610628565b4260095403905090565b60075481565b60085460009060001990825b600a54811015610c1157600a805482908110610be257fe5b906000526020600020906002020160000154820191508142111515610c0957809250610c11565b600101610bca565b509092915050565b6000805433600160a060020a03908116911614610c3557600080fd5b600054600160a060020a03838116911614801590610c5b5750600160a060020a03821615155b1515610c6657600080fd5b5060008054600160a060020a0383811673ffffffffffffffffffffffffffffffffffffffff19831617909255167fb532073b38c83145e3e5135377a08bf9aab55bc0fd7c1179cd4fb995d2a5159c8183604051600160a060020a039283168152911660208201526040908101905180910390a15050565b600154600160a060020a031681565b60005433600160a060020a03908116911614610d0757600080fd5b600254600160a060020a03161515610d1e57600080fd5b600254600654600160a060020a039091169080156108fc0290604051600060405180830381858888f193505050501515610d5757600080fd5b6002546006547f4cd5d77630469c8bf31f4f713e8d3486394a520a59fb307e64509ff32008683591600160a060020a031690604051600160a060020a03909216825260208201526040908101905180910390a1565b828054828255906000526020600020908101928215610de7579160200282015b82811115610de7578251825591602001919060010190610dcc565b50610df3929150610e20565b5090565b815481835581811511610e1b57600083815260209020610e1b918101908301610e20565b505050565b61062891905b80821115610df35760008155600101610e26565b610e46600a600061102b565b600a805460018101610e58838261104f565b916000526020600020906002020160006040805190810160405262093a808152601460208201529190508151815560208201518160010155505050600a8054806001018281610ea7919061104f565b916000526020600020906002020160006040805190810160405262093a808152600a60208201529190508151815560208201518160010155505050600a8054806001018281610ef6919061104f565b916000526020600020906002020160006040805190810160405262093a8081526000602082015291905081518155602082015160019091015550610f3e9050600b600061102b565b600b805460018101610f50838261104f565b916000526020600020906002020160006040805190810160405262278d008152602160208201529190508151815560208201518160010155505050600b8054806001018281610f9f919061104f565b916000526020600020906002020160006040805190810160405262278d008152602160208201529190508151815560208201518160010155505050600b8054806001018281610fee919061104f565b916000526020600020906002020160006040805190810160405262278d008152602260208201529190508151815560208201518160010155505050565b508054600082556002029060005260206000209081019061104c9190611077565b50565b815481835581811511610e1b57600202816002028360005260206000209182019101610e1b91905b61062891905b80821115610df3576000808255600182015560020161107d5600a165627a7a72305820866140702a905d25c830568ff03cb4bfb88430f52280e72b46a2d11324501c950029",
  "source": "pragma solidity ^0.4.16;\r\n\r\nimport \"./CrowdSale.sol\";\r\n\r\n\r\ncontract FairGameCrowdSale is CrowdSale {\r\n    function FairGameCrowdSale(address beneficiaryAddr, address tokenHolderAddr, address tokenAddr)\r\n        CrowdSale(beneficiaryAddr, tokenHolderAddr, tokenAddr, 10000) public {\r\n\r\n    }\r\n\r\n    function _initStages() internal {\r\n        delete icoStages;\r\n\r\n        icoStages.push(Stage({rate: 20, duration: 1 weeks}));\r\n        icoStages.push(Stage({rate: 10, duration: 1 weeks}));\r\n        icoStages.push(Stage({rate: 0,  duration: 1 weeks}));\r\n\r\n\r\n        delete lockStages;\r\n\r\n        lockStages.push(Stage({rate: 33, duration: 30 days}));\r\n        lockStages.push(Stage({rate: 33, duration: 30 days}));\r\n        lockStages.push(Stage({rate: 34, duration: 30 days}));\r\n    }\r\n}\r\n",
  "sourcePath": "E:\\DevelopSpace\\Ethereum\\Fair.Game\\smart-contracts\\ICOTruffleProj\\contracts\\FairGameCrowdSale.sol",
  "compiler": {
    "name": "solc",
    "version": "0.4.18+commit.9cf6e910.Emscripten.clang"
  },
  "schemaVersion": "1.0.1",
  "updatedAt": "2017-12-22T03:36:48.971Z"
}