{
  "contractName": "FairGameCrowdSale",
  "abi": [
    {
      "constant": true,
      "inputs": [],
      "name": "amountGoal",
      "outputs": [
        {
          "name": "",
          "type": "uint256"
        }
      ],
      "payable": false,
      "stateMutability": "view",
      "type": "function"
    },
    {
      "constant": true,
      "inputs": [],
      "name": "getTokenAddress",
      "outputs": [
        {
          "name": "",
          "type": "address"
        }
      ],
      "payable": false,
      "stateMutability": "view",
      "type": "function"
    },
    {
      "constant": true,
      "inputs": [],
      "name": "rate",
      "outputs": [
        {
          "name": "",
          "type": "uint256"
        }
      ],
      "payable": false,
      "stateMutability": "view",
      "type": "function"
    },
    {
      "constant": true,
      "inputs": [],
      "name": "endTime",
      "outputs": [
        {
          "name": "",
          "type": "uint256"
        }
      ],
      "payable": false,
      "stateMutability": "view",
      "type": "function"
    },
    {
      "constant": true,
      "inputs": [],
      "name": "beneficiary",
      "outputs": [
        {
          "name": "",
          "type": "address"
        }
      ],
      "payable": false,
      "stateMutability": "view",
      "type": "function"
    },
    {
      "constant": true,
      "inputs": [
        {
          "name": "",
          "type": "address"
        }
      ],
      "name": "purchasers",
      "outputs": [
        {
          "name": "amountEtherSpent",
          "type": "uint256"
        },
        {
          "name": "amountTokenTaken",
          "type": "uint256"
        }
      ],
      "payable": false,
      "stateMutability": "view",
      "type": "function"
    },
    {
      "constant": true,
      "inputs": [],
      "name": "tokenHolder",
      "outputs": [
        {
          "name": "",
          "type": "address"
        }
      ],
      "payable": false,
      "stateMutability": "view",
      "type": "function"
    },
    {
      "constant": true,
      "inputs": [],
      "name": "isReachedGoal",
      "outputs": [
        {
          "name": "",
          "type": "bool"
        }
      ],
      "payable": false,
      "stateMutability": "view",
      "type": "function"
    },
    {
      "constant": true,
      "inputs": [],
      "name": "isStarted",
      "outputs": [
        {
          "name": "",
          "type": "bool"
        }
      ],
      "payable": false,
      "stateMutability": "view",
      "type": "function"
    },
    {
      "constant": true,
      "inputs": [],
      "name": "startTime",
      "outputs": [
        {
          "name": "",
          "type": "uint256"
        }
      ],
      "payable": false,
      "stateMutability": "view",
      "type": "function"
    },
    {
      "constant": true,
      "inputs": [],
      "name": "amountRaised",
      "outputs": [
        {
          "name": "",
          "type": "uint256"
        }
      ],
      "payable": false,
      "stateMutability": "view",
      "type": "function"
    },
    {
      "constant": true,
      "inputs": [
        {
          "name": "",
          "type": "uint256"
        }
      ],
      "name": "stages",
      "outputs": [
        {
          "name": "duration",
          "type": "uint256"
        },
        {
          "name": "bonusRate",
          "type": "uint256"
        }
      ],
      "payable": false,
      "stateMutability": "view",
      "type": "function"
    },
    {
      "constant": true,
      "inputs": [],
      "name": "owner",
      "outputs": [
        {
          "name": "",
          "type": "address"
        }
      ],
      "payable": false,
      "stateMutability": "view",
      "type": "function"
    },
    {
      "constant": false,
      "inputs": [
        {
          "name": "fundingGoalInEther",
          "type": "uint256"
        }
      ],
      "name": "start",
      "outputs": [],
      "payable": false,
      "stateMutability": "nonpayable",
      "type": "function"
    },
    {
      "constant": true,
      "inputs": [],
      "name": "isEnded",
      "outputs": [
        {
          "name": "",
          "type": "bool"
        }
      ],
      "payable": false,
      "stateMutability": "view",
      "type": "function"
    },
    {
      "constant": true,
      "inputs": [],
      "name": "getRemainingTimeInSecond",
      "outputs": [
        {
          "name": "",
          "type": "uint256"
        }
      ],
      "payable": false,
      "stateMutability": "view",
      "type": "function"
    },
    {
      "constant": true,
      "inputs": [],
      "name": "amountTokenIssued",
      "outputs": [
        {
          "name": "",
          "type": "uint256"
        }
      ],
      "payable": false,
      "stateMutability": "view",
      "type": "function"
    },
    {
      "constant": true,
      "inputs": [],
      "name": "getCurrentStage",
      "outputs": [
        {
          "name": "",
          "type": "int256"
        }
      ],
      "payable": false,
      "stateMutability": "view",
      "type": "function"
    },
    {
      "constant": false,
      "inputs": [
        {
          "name": "newOwner",
          "type": "address"
        }
      ],
      "name": "transferOwnership",
      "outputs": [],
      "payable": false,
      "stateMutability": "nonpayable",
      "type": "function"
    },
    {
      "constant": true,
      "inputs": [],
      "name": "token",
      "outputs": [
        {
          "name": "",
          "type": "address"
        }
      ],
      "payable": false,
      "stateMutability": "view",
      "type": "function"
    },
    {
      "constant": false,
      "inputs": [],
      "name": "safeWithdrawal",
      "outputs": [],
      "payable": false,
      "stateMutability": "nonpayable",
      "type": "function"
    },
    {
      "inputs": [
        {
          "name": "beneficiaryAddr",
          "type": "address"
        },
        {
          "name": "tokenHolderAddr",
          "type": "address"
        },
        {
          "name": "tokenAddr",
          "type": "address"
        }
      ],
      "payable": false,
      "stateMutability": "nonpayable",
      "type": "constructor"
    },
    {
      "payable": true,
      "stateMutability": "payable",
      "type": "fallback"
    },
    {
      "anonymous": false,
      "inputs": [
        {
          "indexed": false,
          "name": "purchaser",
          "type": "address"
        },
        {
          "indexed": false,
          "name": "value",
          "type": "uint256"
        },
        {
          "indexed": false,
          "name": "amountTokens",
          "type": "uint256"
        }
      ],
      "name": "TokenPurchase",
      "type": "event"
    },
    {
      "anonymous": false,
      "inputs": [
        {
          "indexed": false,
          "name": "totalAmountRaised",
          "type": "uint256"
        },
        {
          "indexed": false,
          "name": "totalTokenIssued",
          "type": "uint256"
        }
      ],
      "name": "GoalReached",
      "type": "event"
    },
    {
      "anonymous": false,
      "inputs": [
        {
          "indexed": false,
          "name": "beneficiaryAddress",
          "type": "address"
        },
        {
          "indexed": false,
          "name": "value",
          "type": "uint256"
        }
      ],
      "name": "FundingWithdrawn",
      "type": "event"
    },
    {
      "anonymous": false,
      "inputs": [
        {
          "indexed": false,
          "name": "oldOwner",
          "type": "address"
        },
        {
          "indexed": false,
          "name": "newOwner",
          "type": "address"
        }
      ],
      "name": "OwnerChanged",
      "type": "event"
    }
  ],
  "bytecode": "0x606060405234156200001057600080fd5b60405160608062000ce683398101604052808051919060200180519190602001805160008054600160a060020a03191633600160a060020a03908116919091179091559092508491508390839061271090841615156200006f57600080fd5b600160a060020a03831615156200008557600080fd5b600160a060020a03821615156200009b57600080fd5b60008111620000a957600080fd5b60028054600160a060020a03808716600160a060020a031992831617909255600380548684169083161790556001805492851692909116919091179055600481905562000103640100000000620008a36200011082021704565b5050505050505062000295565b6200011e600a600062000211565b600a80546001810162000132838262000237565b916000526020600020906002020160006040805190810160405262093a808152601460208201529190508151815560208201518160010155505050600a805480600101828162000183919062000237565b916000526020600020906002020160006040805190810160405262093a808152600a60208201529190508151815560208201518160010155505050600a8054806001018281620001d4919062000237565b916000526020600020906002020160006040805190810160405262093a808152600060208201529190508151815560208201518160010155505050565b50805460008255600202906000526020600020908101906200023491906200026b565b50565b81548183558181151162000266576002028160020283600052602060002091820191016200026691906200026b565b505050565b6200029291905b808211156200028e576000808255600182015560020162000272565b5090565b90565b610a4180620002a56000396000f30060606040526004361061011c5763ffffffff7c01000000000000000000000000000000000000000000000000000000006000350416630785001c811461029a57806310fe9ae8146102bf5780632c4e722e146102ee5780633197cbb61461030157806338af3eed1461031457806339ad021214610327578063420a83e71461035e57806352a2695c14610371578063544736e61461039857806378e97925146103ab5780637b3e5e7b146103be578063845ddcb2146103d15780638da5cb5b146103e757806395805dad146103fa578063a4fd6f5614610412578063c44f786414610425578063e1e073b614610438578063eedbe31d1461044b578063f2fde38b1461045e578063fc0c546a1461047d578063fd6b7ef814610490575b60008060006101296104a3565b151561013457600080fd5b61013c6104bf565b1561014657600080fd5b6000341161015357600080fd5b34925061015f836104d4565b600160a060020a03338181166000908152600b60205260408082208054890181556001808201805488019055600680548b0190556007805488019055546003549698509096508416946323b872dd94169291879151602001526040517c010000000000000000000000000000000000000000000000000000000063ffffffff8616028152600160a060020a0393841660048201529190921660248201526044810191909152606401602060405180830381600087803b151561022057600080fd5b6102c65a03f1151561023157600080fd5b50505060405180519050507fcd60aa75dea3072fbc07ae6d7d856b5dc5f4eee88854f5b4abf7b680ef8bc50f3384846040518084600160a060020a0316600160a060020a03168152602001838152602001828152602001935050505060405180910390a1505050005b34156102a557600080fd5b6102ad61053d565b60405190815260200160405180910390f35b34156102ca57600080fd5b6102d2610543565b604051600160a060020a03909116815260200160405180910390f35b34156102f957600080fd5b6102ad610552565b341561030c57600080fd5b6102ad610558565b341561031f57600080fd5b6102d261055e565b341561033257600080fd5b610346600160a060020a036004351661056d565b60405191825260208201526040908101905180910390f35b341561036957600080fd5b6102d2610586565b341561037c57600080fd5b610384610595565b604051901515815260200160405180910390f35b34156103a357600080fd5b6103846104a3565b34156103b657600080fd5b6102ad6105a0565b34156103c957600080fd5b6102ad6105a6565b34156103dc57600080fd5b6103466004356105ac565b34156103f257600080fd5b6102d26105d8565b341561040557600080fd5b6104106004356105e7565b005b341561041d57600080fd5b6103846104bf565b341561043057600080fd5b6102ad61067d565b341561044357600080fd5b6102ad61069c565b341561045657600080fd5b6102ad6106a2565b341561046957600080fd5b610410600160a060020a03600435166106fd565b341561048857600080fd5b6102d26107c1565b341561049b57600080fd5b6104106107d0565b600060085460001080156104b957504260085411155b90505b90565b60006009544211806104b957506104b9610595565b600454600090820281806104e66106a2565b9150600082121580156104fa5750600a5482105b151561050257fe5b6064600a8381548110151561051357fe5b906000526020600020906002020160010154840281151561053057fe5b0492909201949350505050565b60055481565b600154600160a060020a031690565b60045481565b60095481565b600254600160a060020a031681565b600b602052600090815260409020805460019091015482565b600354600160a060020a031681565b600554600654101590565b60085481565b60065481565b600a8054829081106105ba57fe5b60009182526020909120600290910201805460019091015490915082565b600054600160a060020a031681565b60008054819033600160a060020a0390811691161461060557600080fd5b61060d6104a3565b1561061757600080fd5b6000831161062457600080fd5b5050670de0b6b3a76400008102600555426008556000805b600a5481101561067257600a80548290811061065457fe5b6000918252602090912060029091020154919091019060010161063c565b506008540160095550565b600060095460001415610692575060006104bc565b4260095403905090565b60075481565b60085460009060001990825b600a548110156106f557600a8054829081106106c657fe5b9060005260206000209060020201600001548201915081421115156106ed578092506106f5565b6001016106ae565b509092915050565b6000805433600160a060020a0390811691161461071957600080fd5b600054600160a060020a0383811691161480159061073f5750600160a060020a03821615155b151561074a57600080fd5b5060008054600160a060020a0383811673ffffffffffffffffffffffffffffffffffffffff19831617909255167fb532073b38c83145e3e5135377a08bf9aab55bc0fd7c1179cd4fb995d2a5159c8183604051600160a060020a039283168152911660208201526040908101905180910390a15050565b600154600160a060020a031681565b6107d86104bf565b15156107e357600080fd5b60005433600160a060020a039081169116146107fe57600080fd5b600254600160a060020a0316151561081557600080fd5b600254600654600160a060020a039091169080156108fc0290604051600060405180830381858888f19350505050151561084e57600080fd5b6002546006547f4cd5d77630469c8bf31f4f713e8d3486394a520a59fb307e64509ff32008683591600160a060020a031690604051600160a060020a03909216825260208201526040908101905180910390a1565b6108af600a600061099c565b600a8054600181016108c183826109c0565b916000526020600020906002020160006040805190810160405262093a808152601460208201529190508151815560208201518160010155505050600a805480600101828161091091906109c0565b916000526020600020906002020160006040805190810160405262093a808152600a60208201529190508151815560208201518160010155505050600a805480600101828161095f91906109c0565b916000526020600020906002020160006040805190810160405262093a808152600060208201529190508151815560208201518160010155505050565b50805460008255600202906000526020600020908101906109bd91906109f1565b50565b8154818355818115116109ec576002028160020283600052602060002091820191016109ec91906109f1565b505050565b6104bc91905b80821115610a1157600080825560018201556002016109f7565b50905600a165627a7a723058204ad43f6d3d7a1751e4e62a94f542b5c00ebf444c9450f52e9f491ea7022f88530029",
  "source": "pragma solidity ^0.4.0;\r\n\r\nimport \"./CrowdSale.sol\";\r\n\r\n\r\ncontract FairGameCrowdSale is CrowdSale {\r\n    function FairGameCrowdSale(address beneficiaryAddr, address tokenHolderAddr, address tokenAddr)\r\n        CrowdSale(beneficiaryAddr, tokenHolderAddr, tokenAddr, 10000) public {\r\n\r\n    }\r\n\r\n    function _initStages() internal {\r\n        delete stages;\r\n\r\n        stages.push(Stage({bonusRate: 20, duration: 1 weeks}));\r\n        stages.push(Stage({bonusRate: 10, duration: 1 weeks}));\r\n        stages.push(Stage({bonusRate: 0, duration: 1 weeks}));\r\n    }\r\n}\r\n",
  "sourcePath": "E:\\DevelopSpace\\Ethereum\\Fair.Game\\smart-contracts\\ICOTruffleProj\\contracts\\FairGameCrowdSale.sol",
  "compiler": {
    "name": "solc",
    "version": "0.4.18+commit.9cf6e910.Emscripten.clang"
  },
  "schemaVersion": "1.0.1",
  "updatedAt": "2017-12-15T07:10:27.636Z"
}