{
  "contractName": "TokenERC20",
  "abi": [
    {
      "constant": true,
      "inputs": [],
      "name": "name",
      "outputs": [
        {
          "name": "",
          "type": "string"
        }
      ],
      "payable": false,
      "stateMutability": "view",
      "type": "function"
    },
    {
      "constant": false,
      "inputs": [
        {
          "name": "_spender",
          "type": "address"
        },
        {
          "name": "_value",
          "type": "uint256"
        }
      ],
      "name": "approve",
      "outputs": [
        {
          "name": "success",
          "type": "bool"
        }
      ],
      "payable": false,
      "stateMutability": "nonpayable",
      "type": "function"
    },
    {
      "constant": true,
      "inputs": [],
      "name": "totalSupply",
      "outputs": [
        {
          "name": "",
          "type": "uint256"
        }
      ],
      "payable": false,
      "stateMutability": "view",
      "type": "function"
    },
    {
      "constant": false,
      "inputs": [
        {
          "name": "_from",
          "type": "address"
        },
        {
          "name": "_to",
          "type": "address"
        },
        {
          "name": "_value",
          "type": "uint256"
        }
      ],
      "name": "transferFrom",
      "outputs": [
        {
          "name": "",
          "type": "bool"
        }
      ],
      "payable": false,
      "stateMutability": "nonpayable",
      "type": "function"
    },
    {
      "constant": true,
      "inputs": [
        {
          "name": "",
          "type": "address"
        }
      ],
      "name": "balances",
      "outputs": [
        {
          "name": "",
          "type": "uint256"
        }
      ],
      "payable": false,
      "stateMutability": "view",
      "type": "function"
    },
    {
      "constant": true,
      "inputs": [],
      "name": "decimals",
      "outputs": [
        {
          "name": "",
          "type": "uint8"
        }
      ],
      "payable": false,
      "stateMutability": "view",
      "type": "function"
    },
    {
      "constant": false,
      "inputs": [
        {
          "name": "_value",
          "type": "uint256"
        }
      ],
      "name": "burn",
      "outputs": [
        {
          "name": "success",
          "type": "bool"
        }
      ],
      "payable": false,
      "stateMutability": "nonpayable",
      "type": "function"
    },
    {
      "constant": true,
      "inputs": [
        {
          "name": "",
          "type": "address"
        },
        {
          "name": "",
          "type": "address"
        }
      ],
      "name": "allowances",
      "outputs": [
        {
          "name": "",
          "type": "uint256"
        }
      ],
      "payable": false,
      "stateMutability": "view",
      "type": "function"
    },
    {
      "constant": false,
      "inputs": [
        {
          "name": "_spender",
          "type": "address"
        },
        {
          "name": "_subtractedValue",
          "type": "uint256"
        }
      ],
      "name": "decreaseApproval",
      "outputs": [
        {
          "name": "",
          "type": "bool"
        }
      ],
      "payable": false,
      "stateMutability": "nonpayable",
      "type": "function"
    },
    {
      "constant": true,
      "inputs": [
        {
          "name": "_owner",
          "type": "address"
        }
      ],
      "name": "balanceOf",
      "outputs": [
        {
          "name": "",
          "type": "uint256"
        }
      ],
      "payable": false,
      "stateMutability": "view",
      "type": "function"
    },
    {
      "constant": false,
      "inputs": [
        {
          "name": "_from",
          "type": "address"
        },
        {
          "name": "_value",
          "type": "uint256"
        }
      ],
      "name": "burnFrom",
      "outputs": [
        {
          "name": "success",
          "type": "bool"
        }
      ],
      "payable": false,
      "stateMutability": "nonpayable",
      "type": "function"
    },
    {
      "constant": true,
      "inputs": [],
      "name": "symbol",
      "outputs": [
        {
          "name": "",
          "type": "string"
        }
      ],
      "payable": false,
      "stateMutability": "view",
      "type": "function"
    },
    {
      "constant": false,
      "inputs": [
        {
          "name": "_to",
          "type": "address"
        },
        {
          "name": "_value",
          "type": "uint256"
        }
      ],
      "name": "transfer",
      "outputs": [
        {
          "name": "",
          "type": "bool"
        }
      ],
      "payable": false,
      "stateMutability": "nonpayable",
      "type": "function"
    },
    {
      "constant": false,
      "inputs": [
        {
          "name": "_spender",
          "type": "address"
        },
        {
          "name": "_value",
          "type": "uint256"
        },
        {
          "name": "_extraData",
          "type": "bytes"
        }
      ],
      "name": "approveAndCall",
      "outputs": [
        {
          "name": "success",
          "type": "bool"
        }
      ],
      "payable": false,
      "stateMutability": "nonpayable",
      "type": "function"
    },
    {
      "constant": false,
      "inputs": [
        {
          "name": "_spender",
          "type": "address"
        },
        {
          "name": "_addedValue",
          "type": "uint256"
        }
      ],
      "name": "increaseApproval",
      "outputs": [
        {
          "name": "",
          "type": "bool"
        }
      ],
      "payable": false,
      "stateMutability": "nonpayable",
      "type": "function"
    },
    {
      "constant": true,
      "inputs": [
        {
          "name": "_owner",
          "type": "address"
        },
        {
          "name": "_spender",
          "type": "address"
        }
      ],
      "name": "allowance",
      "outputs": [
        {
          "name": "",
          "type": "uint256"
        }
      ],
      "payable": false,
      "stateMutability": "view",
      "type": "function"
    },
    {
      "inputs": [
        {
          "name": "_initialSupply",
          "type": "uint256"
        },
        {
          "name": "_tokenName",
          "type": "string"
        },
        {
          "name": "_tokenSymbol",
          "type": "string"
        },
        {
          "name": "_decimals",
          "type": "uint8"
        }
      ],
      "payable": false,
      "stateMutability": "nonpayable",
      "type": "constructor"
    },
    {
      "anonymous": false,
      "inputs": [
        {
          "indexed": true,
          "name": "from",
          "type": "address"
        },
        {
          "indexed": false,
          "name": "value",
          "type": "uint256"
        }
      ],
      "name": "Burn",
      "type": "event"
    },
    {
      "anonymous": false,
      "inputs": [
        {
          "indexed": true,
          "name": "from",
          "type": "address"
        },
        {
          "indexed": true,
          "name": "to",
          "type": "address"
        },
        {
          "indexed": false,
          "name": "value",
          "type": "uint256"
        }
      ],
      "name": "Transfer",
      "type": "event"
    },
    {
      "anonymous": false,
      "inputs": [
        {
          "indexed": true,
          "name": "owner",
          "type": "address"
        },
        {
          "indexed": true,
          "name": "spender",
          "type": "address"
        },
        {
          "indexed": false,
          "name": "value",
          "type": "uint256"
        }
      ],
      "name": "Approval",
      "type": "event"
    }
  ],
  "bytecode": "0x60606040526003805460ff19166012179055341561001c57600080fd5b604051610cfc380380610cfc83398101604052808051919060200180518201919060200180518201919060200180519150600190508380516100629291602001906100b4565b5060028280516100769291602001906100b4565b506003805460ff191660ff928316179081905516600a0a92909202600081815533600160a060020a03168152600460205260409020555061014f9050565b828054600181600116156101000203166002900490600052602060002090601f016020900481019282601f106100f557805160ff1916838001178555610122565b82800160010185558215610122579182015b82811115610122578251825591602001919060010190610107565b5061012e929150610132565b5090565b61014c91905b8082111561012e5760008155600101610138565b90565b610b9e8061015e6000396000f3006060604052600436106100e55763ffffffff7c010000000000000000000000000000000000000000000000000000000060003504166306fdde0381146100ea578063095ea7b31461017457806318160ddd146101aa57806323b872dd146101cf57806327e235e3146101f7578063313ce5671461021657806342966c681461023f57806355b6ed5c14610255578063661884631461027a57806370a082311461029c57806379cc6790146102bb57806395d89b41146102dd578063a9059cbb146102f0578063cae9ca5114610312578063d73dd62314610377578063dd62ed3e14610399575b600080fd5b34156100f557600080fd5b6100fd6103be565b60405160208082528190810183818151815260200191508051906020019080838360005b83811015610139578082015183820152602001610121565b50505050905090810190601f1680156101665780820380516001836020036101000a031916815260200191505b509250505060405180910390f35b341561017f57600080fd5b610196600160a060020a036004351660243561045c565b604051901515815260200160405180910390f35b34156101b557600080fd5b6101bd6104c8565b60405190815260200160405180910390f35b34156101da57600080fd5b610196600160a060020a03600435811690602435166044356104ce565b341561020257600080fd5b6101bd600160a060020a0360043516610543565b341561022157600080fd5b610229610555565b60405160ff909116815260200160405180910390f35b341561024a57600080fd5b61019660043561055e565b341561026057600080fd5b6101bd600160a060020a03600435811690602435166105e7565b341561028557600080fd5b610196600160a060020a0360043516602435610604565b34156102a757600080fd5b6101bd600160a060020a03600435166106f2565b34156102c657600080fd5b610196600160a060020a036004351660243561070d565b34156102e857600080fd5b6100fd6107e7565b34156102fb57600080fd5b610196600160a060020a0360043516602435610852565b341561031d57600080fd5b61019660048035600160a060020a03169060248035919060649060443590810190830135806020601f8201819004810201604051908101604052818152929190602084018383808284375094965061086695505050505050565b341561038257600080fd5b610196600160a060020a036004351660243561099a565b34156103a457600080fd5b6101bd600160a060020a0360043581169060243516610a3b565b60018054600181600116156101000203166002900480601f0160208091040260200160405190810160405280929190818152602001828054600181600116156101000203166002900480156104545780601f1061042957610100808354040283529160200191610454565b820191906000526020600020905b81548152906001019060200180831161043757829003601f168201915b505050505081565b600160a060020a03338116600081815260056020908152604080832094871680845294909152808220859055909291907f8c5be1e5ebec7d5bd14f71427d1e84f3dd0314c0f7b2291e5b200ac8c7c3b9259085905190815260200160405180910390a350600192915050565b60005481565b600160a060020a0380841660009081526005602090815260408083203390941683529290529081205482111561050357600080fd5b600160a060020a038085166000908152600560209081526040808320339094168352929052208054839003905561053b848484610a66565b949350505050565b60046020526000908152604090205481565b60035460ff1681565b600160a060020a0333166000908152600460205260408120548290101561058457600080fd5b600160a060020a0333166000818152600460205260408082208054869003905581548590039091557fcc16f5dbb4873280815c1ee09dbd06736cffcc184412cf7a71a0fdb75d397ca59084905190815260200160405180910390a2506001919050565b600560209081526000928352604080842090915290825290205481565b600160a060020a0333811660009081526005602090815260408083209386168352929052908120548083111561066157600160a060020a03338116600090815260056020908152604080832093881683529290529081205561068c565b600160a060020a03338116600090815260056020908152604080832093881683529290522083820390555b600160a060020a0333811660008181526005602090815260408083209489168084529490915290819020547f8c5be1e5ebec7d5bd14f71427d1e84f3dd0314c0f7b2291e5b200ac8c7c3b925915190815260200160405180910390a35060019392505050565b600160a060020a031660009081526004602052604090205490565b600160a060020a0382166000908152600460205260408120548290101561073357600080fd5b600160a060020a038084166000908152600560209081526040808320339094168352929052205482111561076657600080fd5b600160a060020a03808416600081815260046020908152604080832080548890039055600582528083203390951683529390528281208054869003905580548590039055907fcc16f5dbb4873280815c1ee09dbd06736cffcc184412cf7a71a0fdb75d397ca59084905190815260200160405180910390a250600192915050565b60028054600181600116156101000203166002900480601f0160208091040260200160405190810160405280929190818152602001828054600181600116156101000203166002900480156104545780601f1061042957610100808354040283529160200191610454565b600061085f338484610a66565b9392505050565b600080610873858561045c565b15610992575083600160a060020a038116638f4ffcb1338630876040518563ffffffff167c01000000000000000000000000000000000000000000000000000000000281526004018085600160a060020a0316600160a060020a0316815260200184815260200183600160a060020a0316600160a060020a0316815260200180602001828103825283818151815260200191508051906020019080838360005b8381101561092b578082015183820152602001610913565b50505050905090810190601f1680156109585780820380516001836020036101000a031916815260200191505b5095505050505050600060405180830381600087803b151561097957600080fd5b6102c65a03f1151561098a57600080fd5b505050600191505b509392505050565b600160a060020a033381166000908152600560209081526040808320938616835292905290812054828101116109cf57600080fd5b600160a060020a033381166000818152600560209081526040808320948816808452949091529081902080548601908190557f8c5be1e5ebec7d5bd14f71427d1e84f3dd0314c0f7b2291e5b200ac8c7c3b925915190815260200160405180910390a350600192915050565b600160a060020a03918216600090815260056020908152604080832093909416825291909152205490565b600080600160a060020a0384161515610a7e57600080fd5b600160a060020a03851660009081526004602052604090205483901015610aa457600080fd5b600160a060020a03841660009081526004602052604090205483810111610aca57600080fd5b50600160a060020a0380841660008181526004602052604080822080549489168084528284208054898103909155938590528154880190915591909301927fddf252ad1be2c89b69c2b068fc378daa952ba7f163c4a11628f55a4df523b3ef9086905190815260200160405180910390a3600160a060020a03808516600090815260046020526040808220549288168252902054018114610b6757fe5b5060019493505050505600a165627a7a723058207c9d215b013a887c18fb89241a2b62439ca5472a7c66db7735393fbad87339170029",
  "source": "pragma solidity ^0.4.16;\r\n\r\nimport \"./ERC20.sol\";\r\n\r\n\r\ninterface tokenRecipient {\r\n    function receiveApproval(address _from, uint256 _value, address _token, bytes _extraData) public;\r\n}\r\n\r\n\r\n\r\ncontract TokenERC20 is ERC20 {\r\n    // Public variables of the token\r\n    string public name;\r\n    string public symbol;\r\n    uint8  public decimals = 18;\r\n    // 18 decimals is the strongly suggested default, avoid changing it\r\n\r\n    // This creates an array with all balances\r\n    mapping (address => uint256) public balances;\r\n    mapping (address => mapping (address => uint256)) public allowances;\r\n\r\n\r\n    event Burn(address indexed from, uint256 value);\r\n\r\n\r\n    /**\r\n     * Constructor function\r\n     *\r\n     * Initializes contract with initial supply tokens to the creator of the contract\r\n     */\r\n    function TokenERC20(uint256 _initialSupply, string _tokenName, string _tokenSymbol, uint8 _decimals) public {\r\n        name = _tokenName;                                   // Set the name for display purposes\r\n        symbol = _tokenSymbol;                               // Set the symbol for display purposes\r\n        decimals = _decimals;\r\n\r\n        totalSupply = _initialSupply * 10 ** uint256(decimals);  // Update total supply with the decimal amount\r\n        balances[msg.sender] = totalSupply;                // Give the creator all initial tokens\r\n    }\r\n\r\n    function balanceOf(address _owner) public view returns(uint256) {\r\n        return balances[_owner];\r\n    }\r\n\r\n    function allowance(address _owner, address _spender) public view returns (uint256) {\r\n        return allowances[_owner][_spender];\r\n    }\r\n\r\n    /**\r\n     * Internal transfer, only can be called by this contract\r\n     */\r\n    function _transfer(address _from, address _to, uint _value) internal returns(bool) {\r\n        // Prevent transfer to 0x0 address. Use burn() instead\r\n        require(_to != 0x0);\r\n        // Check if the sender has enough\r\n        require(balances[_from] >= _value);\r\n        // Check for overflows\r\n        require(balances[_to] + _value > balances[_to]);\r\n        // Save this for an assertion in the future\r\n        uint previousBalances = balances[_from] + balances[_to];\r\n        // Subtract from the sender\r\n        balances[_from] -= _value;\r\n        // Add the same to the recipient\r\n        balances[_to] += _value;\r\n        Transfer(_from, _to, _value);\r\n        // Asserts are used to use static analysis to find bugs in your code. They should never fail\r\n        assert(balances[_from] + balances[_to] == previousBalances);\r\n\r\n        return true;\r\n    }\r\n\r\n    /**\r\n     * Transfer tokens\r\n     *\r\n     * Send `_value` tokens to `_to` from your account\r\n     *\r\n     * @param _to The address of the recipient\r\n     * @param _value the amount to send\r\n     */\r\n    function transfer(address _to, uint256 _value) public returns(bool) {\r\n        return _transfer(msg.sender, _to, _value);\r\n    }\r\n\r\n    /**\r\n     * Transfer tokens from other address\r\n     *\r\n     * Send `_value` tokens to `_to` in behalf of `_from`\r\n     *\r\n     * @param _from The address of the sender\r\n     * @param _to The address of the recipient\r\n     * @param _value the amount to send\r\n     */\r\n    function transferFrom(address _from, address _to, uint256 _value) public returns (bool) {\r\n        require(_value <= allowances[_from][msg.sender]);     // Check allowance\r\n        allowances[_from][msg.sender] -= _value;\r\n        return _transfer(_from, _to, _value);\r\n    }\r\n\r\n    /**\r\n     * Set allowance for other address\r\n     *\r\n     * Allows `_spender` to spend no more than `_value` tokens in your behalf\r\n     *\r\n     * @param _spender The address authorized to spend\r\n     * @param _value the max amount they can spend\r\n     */\r\n    function approve(address _spender, uint256 _value) public returns (bool success) {\r\n        allowances[msg.sender][_spender] = _value;\r\n        Approval(msg.sender, _spender, _value);\r\n        return true;\r\n    }\r\n\r\n    /**\r\n     * Set allowance for other address and notify\r\n     *\r\n     * Allows `_spender` to spend no more than `_value` tokens in your behalf, and then ping the contract about it\r\n     *\r\n     * @param _spender The address authorized to spend\r\n     * @param _value the max amount they can spend\r\n     * @param _extraData some extra information to send to the approved contract\r\n     */\r\n    function approveAndCall(address _spender, uint256 _value, bytes _extraData) public returns (bool success) {\r\n        if (approve(_spender, _value)) {\r\n            tokenRecipient spender = tokenRecipient(_spender);\r\n            spender.receiveApproval(msg.sender, _value, this, _extraData);\r\n            return true;\r\n        }\r\n    }\r\n\r\n    /**\r\n     * Destroy tokens\r\n     *\r\n     * Remove `_value` tokens from the system irreversibly\r\n     *\r\n     * @param _value the amount of money to burn\r\n     */\r\n    function burn(uint256 _value) public returns (bool success) {\r\n        require(balances[msg.sender] >= _value);   // Check if the sender has enough\r\n        balances[msg.sender] -= _value;            // Subtract from the sender\r\n        totalSupply -= _value;                      // Updates totalSupply\r\n        Burn(msg.sender, _value);\r\n        return true;\r\n    }\r\n\r\n    /**\r\n     * Destroy tokens from other account\r\n     *\r\n     * Remove `_value` tokens from the system irreversibly on behalf of `_from`.\r\n     *\r\n     * @param _from the address of the sender\r\n     * @param _value the amount of money to burn\r\n     */\r\n    function burnFrom(address _from, uint256 _value) public returns (bool success) {\r\n        require(balances[_from] >= _value);                // Check if the targeted balance is enough\r\n        require(_value <= allowances[_from][msg.sender]);    // Check allowance\r\n        balances[_from] -= _value;                         // Subtract from the targeted balance\r\n        allowances[_from][msg.sender] -= _value;             // Subtract from the sender's allowance\r\n        totalSupply -= _value;                              // Update totalSupply\r\n        Burn(_from, _value);\r\n        return true;\r\n    }\r\n\r\n    /**\r\n     * approve should be called when allowances[_spender] == 0. To increment\r\n     * allowances value is better to use this function to avoid 2 calls (and wait until\r\n     * the first transaction is mined)\r\n     * From MonolithDAO Token.sol\r\n     */\r\n    function increaseApproval(address _spender, uint _addedValue) public returns (bool) {\r\n        // Check for overflows\r\n        require(allowances[msg.sender][_spender] + _addedValue > allowances[msg.sender][_spender]);\r\n\r\n        allowances[msg.sender][_spender] += _addedValue;\r\n        Approval(msg.sender, _spender, allowances[msg.sender][_spender]);\r\n        return true;\r\n    }\r\n\r\n    function decreaseApproval(address _spender, uint _subtractedValue) public returns (bool) {\r\n        uint oldValue = allowances[msg.sender][_spender];\r\n        if (_subtractedValue > oldValue) {\r\n            allowances[msg.sender][_spender] = 0;\r\n        } else {\r\n            allowances[msg.sender][_spender] = oldValue - _subtractedValue;\r\n        }\r\n        Approval(msg.sender, _spender, allowances[msg.sender][_spender]);\r\n        return true;\r\n    }\r\n\r\n\r\n}\r\n",
  "sourcePath": "E:\\DevelopSpace\\Ethereum\\Fair.Game\\smart-contracts\\ICOTruffleProj\\contracts\\TokenERC20.sol",
  "compiler": {
    "name": "solc",
    "version": "0.4.18+commit.9cf6e910.Emscripten.clang"
  },
  "schemaVersion": "1.0.1",
  "updatedAt": "2017-12-15T07:05:53.467Z"
}